:100000000C943A000C9457000C9457000C94570031
:100010000C9457000C9457000C9457000C94570004
:100020000C9457000C9457000C9457000C945700F4
:100030000C9457000C9457000C9457000C945700E4
:100040000C9457000C9457000C9457000C945700D4
:100050000C9457000C9457000C9457000C945700C4
:100060000C9457000C9457000C9457000C945700B4
:100070000C94570011241FBECFEFD4E0DEBFCDBFDC
:1000800013E0A0E0B1E0E8E7F9E002C005900D92CE
:10009000A433B107D9F723E0A4E3B3E001C01D9274
:1000A000A134B207E1F70E941E040C94BA040C9428
:1000B0000000E1E6F0E080E880831082A89584B734
:1000C000877F84BFE0E6F0E08081886180831082D2
:1000D0000895853098F4673088F421E030E001C05D
:1000E000220F6A95EAF7E82FF0E0EB5CFC4F922FC5
:1000F0009095808189234111822B808308958530DA
:1001000080F4673070F4E82FF0E0EB5CFC4F81E0A6
:1001100090E001C0880F6A95EAF79081982381E00A
:1001200009F480E0089560913403E62FF0E0EB5C81
:10013000FC4F80810E94E100809134038F5F853005
:1001400018F4809334030895109234030895E5E37E
:10015000F3E01082118212821382148208950E94A9
:10016000BF000C94A7009C01FC01FF2784A1832BF6
:1001700084A395A1892F832B85A381E00895CF9334
:10018000DF93C5E2D3E0899199910E94B30083E0A7
:10019000C333D807C1F783E090E40E94B30080E046
:1001A00090E80E94B30083E090E10E94B30083E0F6
:1001B00090E80E94B30083E090E2DF91CF910C942D
:1001C000B300E0913A03F0E0EE0FFF1FE55EFC4F55
:1001D00020813181F901FF2795A1932B95A3E5E2B9
:1001E000F3E097E020813181D901BB2795962C91CE
:1001F000959780FF03C03095232301C0232B95964C
:100200002C938695915032969111ECCFE62FF0E029
:10021000EE0FFF1FE55EFC4F80819181FC01FF27FF
:1002200085A19095892385A360933A03089541E0C1
:10023000611101C040E0692F0C946900692F0C9492
:100240007F0041E0611101C040E0692F0C9469001A
:100250004F925F926F927F928F929F92AF92BF92D6
:10026000CF92DF92EF92FF920F931F93CF93DF9382
:100270001F92CDB7DEB7862E942E5C01E62EF72EA8
:10028000262F660F330B281B310987FD3395072F67
:10029000072E000C110B091B110997FD139537FF51
:1002A00003C077247A9402C07724739417FF03C0A5
:1002B00066246A9402C066246394290137FF03C050
:1002C00051944194510817FF03C0119501951109EC
:1002D00040165106A4F06201D594C794F92EA814D3
:1002E00021F1692D8A2D9F2D0E942101C01AD10A6A
:1002F000D7FE03C0C40CD51CF60CA70CF0CF6801C8
:10030000D594C794E82EB71681F0692D8E2D9B2DBC
:1003100079830E942101C418D5087981D7FE03C0D2
:10032000C00ED11EE70CB60CEECF692DC7010F90A1
:10033000DF91CF911F910F91FF90EF90DF90CF90C1
:10034000BF90AF909F908F907F906F905F904F90F5
:100350000C942101FF920F931F93CF93DF93D82F1B
:10036000F92E162FC72F042F792F0E942801402F16
:100370006D2F7C2F8D2F9F2D0E942801402F612FE4
:100380007C2F812F9F2D0E942801402F612F7C2FD1
:100390008D2F9C2F0E942801DF91CF911F910F91EB
:1003A000FF9008950E94A700E0E0F1E0118A148612
:1003B0000895DF92EF92FF920F931F93CF93DF93F5
:1003C000D82E7B01162F0F2D8091020190910301F1
:1003D000C0E00197A1F50F2D0C1BE0910801F091F1
:1003E00009018181C817C0F4D0E080910801909183
:1003F0000901FC012281D21768F42D2F4C2F6D2D9D
:100400000E949803682F8D2F8E0D902F0E9421013E
:10041000DF5FEBCFCF5FDFCFC0E0E0910801F0916D
:1004200009018281C81740F460E08C2F8E0D902F57
:100430000E942101CF5FF1CF015031C0CF5F1C2F4F
:100440001E0DE0910801F09109018181C817B0F4F7
:10045000D0E08091080190910901FC012281D2171E
:1004600068F72D2F4C2F6D2D0E949803682F812F38
:100470009D2F9F0D0E942101DF5FEBCFC0E0E09137
:100480000801F09109018281C81740F460E0812FD2
:100490009C2F9F0D0E942101CF5FF1CF1F5F812F05
:1004A000902FDF91CF911F910F91FF90EF90DF90F0
:1004B00008951F93CF93DF93182FEC018C2F811B8E
:1004C0009991992351F0892F0E94D901BC018C2F59
:1004D000811B653014F477FFF1CFDF91CF911F912D
:1004E00008950F931F93CF93DF93EC019B0110921C
:1004F0000C0140930D011092100100910801109120
:1005000009010115110509F449C0F80181816091C3
:1005100006017091070190E00E944504BC018091A2
:100520000A0190910B010E945604CB016AE070E031
:100530000E94450490930F0180930E0130930501B2
:100540002093040140E250E0BE0181E191E00E946D
:10055000AB0480910001909101010197F9F4FE0133
:1005600001900020E9F7CF010197F8019181692FEF
:1005700070E06F5F7F4F8C1B0E943C048150209184
:100580000201309103012130310511F095E001C0E5
:1005900097E0981718F48EEF80931001DF91CF91B8
:1005A0001F910F9108952091020130910301213094
:1005B000310511F070E001C076E04FEF60E00E947D
:1005C0007102089590E090930701809306010895C9
:1005D000909301018093000108959093030180930B
:1005E0000201089590930901809308010895809174
:1005F0003B0390913C03019690933C0380933B0313
:1006000020910E0130910F018217930708F469C001
:1006100010923C0310923B03E0910C01F0E0E0509B
:10062000FF4F818981110AC080910D01823008F449
:1006300058C0815080930D0110920C0180910C01E3
:1006400090E0FC01E050FF4F2189222309F449C0CA
:100650004091000150910101209110014115510577
:1006600021F04130510599F024C0211122C0609140
:100670000401709105018F5E9E4F0E94590290E027
:10068000019790910C01890F80930C0112C0609129
:100690000401709105014091020150910301413024
:1006A000510511F4720F01C0621B8F5E9E4F0E94B4
:1006B0005902809110018F5F80931001082E000C69
:1006C000990BE0910801F0910901218130E0281790
:1006D00039073CF41092100180910C018F5F8093D8
:1006E0000C010C949300CF93DF93C0E0D1E09B8783
:1006F0008A870E94AF0084E190E09F838E83DF9120
:10070000CF910C94D201009789F0FC012381621BE8
:1007100067FD09C0062E000C770B248130E081E0D4
:10072000621773070CF080E08170089580E00895EF
:10073000CF93DF93FC01A62F822F309771F1618157
:10074000461758F59281291740F59381A91BA7FDFB
:1007500024C00A2E000CBB0BC481D0E0AC17BD072F
:10076000E4F40E943C04480F658170E0CD010E94D2
:1007700045040696242F269526952695E80FF91F01
:10078000E20FF11D9081892F90E0477002C095958E
:1007900087954A95E2F7817001C080E0DF91CF91A3
:1007A0000895CF93DF93EC010E94FB039E0140E08C
:1007B00050E062E17AE780E090E00E946A043093C2
:1007C000400320933F03DF91CF91089580913D0333
:1007D00090913E030E940A0420913D0330913E0314
:1007E00080913F0390914003820F931F90933E03AB
:1007F00080933D0308951092800084E080938100EF
:100800001092850010928400089580918400909148
:1008100085000895AC0180918400909185009C0131
:10082000241B350B283E3340B0F7089520918400F7
:1008300030918500820F931F0C940A040E94590086
:1008400084EF91E00E9473038AE391E00E94F20238
:100850008AE00E94E20281E090E00E94E80281E3E7
:1008600091E00E94D30284EF91E00E94D1030E94A4
:10087000E6030E94F702FBCF002480FD060E660F00
:1008800011F08695D1F7802D08950024552704C0D6
:10089000080E591F880F991F009729F076956795C4
:1008A000B8F37105B9F7802D952F0895AA1BBB1BCE
:1008B00051E107C0AA1FBB1FA617B70710F0A61B60
:1008C000B70B881F991F5A95A9F780959095BC0181
:1008D000CD010895052E97FB1EF400940E9481041B
:1008E00057FD07D00E94890407FC03D04EF40C94F6
:1008F000810450954095309521953F4F4F4F5F4F64
:10090000089590958095709561957F4F8F4F9F4F7B
:100910000895A1E21A2EAA1BBB1BFD010DC0AA1F40
:10092000BB1FEE1FFF1FA217B307E407F50720F058
:10093000A21BB30BE40BF50B661F771F881F991FD3
:100940001A9469F760957095809590959B01AC011C
:10095000BD01CF010895FB01DC014150504048F03A
:1009600001900D920020C9F701C01D9241505040E6
:08097000E0F70895F894FFCFB1
:10097800000000000000140000000000000000005B
:10098800000000000000000000000000000000005F
:10099800000000000000000000000000000000004F
:1009A8000057696C6C69616D0000010507205F05DF
:1009B8000000000000C6186380014A290000004AB0
:1009C8007DF59502C417471F0163222232062615BA
:1009D80051930586080000008808210802822084B7
:1009E8008800805457090080904F080000006088F4
:1009F8000000800F00000000008C0100222202008D
:100A08002EE63AA303C4104288032E4244C4072E9C
:100A18004207A30388A9F411023F8407A3032E8683
:100A280017A3033F424408012E4617A3032E460F7F
:100A3800A303C018600C00C01860880088882008CC
:100A480002007CF0010082208888002E42440001C8
:100A58002E425BAB0344C51F63042FC617E3032E66
:100A68008610A2032FC618E3033F8417C2073F84EA
:100A78001742002E861EA30731C61F63048E10423C
:100A88008803104218A3033195515204218410C2DF
:100A98000771D71A630471D61C63042EC618A30302
:100AA8002FC61742002EC65893052FC61763042E6B
:100AB8000607A3039F1042080131C618A30331C6D5
:100AC80018150131C65AAB02312AA26204312A42F2
:100AD80008011F2222C207278410C2012008822091
:100AE800000E218490034445000000000000C00768
:100AF80082200000000038E8A30721B419E30300AE
:100B0800B810A20310DA1CA30700B8F883034C8AB4
:100B1800238400C0C7E8A10321B419630404184260
:100B28008803083084920121A4324A028610428840
:100B38000300AC5A630400B419630400B818A30393
:100B480000BCF8420000D8EC210400B419420000AF
:100B5800B8E0E003421C21240300C418B30500C414
:100B680018150100C45AAB02004445540400C4E8F7
:100B7800A103007C44C4078810410802841042087D
:100B880001821044880000888A0000034000800326
:100B9800100380032000400020001000080004001B
:040BA8000200010046
:00000001FF
